B2010  Maxillary standard denture                                                  N 000000000000NN1992070119941231
B2020  Mandibular standard denture                                                 N 000000000000NN1992070119941231
B2030  Maxillary standard or single denture made against "natural teeth" or an     N 000000000000NN1992070119941231
B2040  Mandibular standard or single denture made against "natural teeth" or an    N 000000000000NN1992070119941231
B2050  Maxillary standard denture (permanent) with soft lining                     N 000000000000NN1992070119941231
B2060  Mandibular standard denture (permanent) with soft lining                    N 000000000000NN1992070119941231
B2070  Maxillary precision denture                                                 N 000000000000NN1992070119941231
B2080  Mandibular precision denture                                                N 000000000000NN1992070119941231
B2110  Maxillary precision denture with soft lining                                N 000000000000NN1992070119941231
B2120  Mandibular precision denture with soft lining                               N 000000000000NN1992070119941231
B2130  Maxillary immediate denture (temporary) which includes tissue conditions as N 000000000000NN1992070119941231
B2140  Mandibular immediate denture (temporary) which includes tissue conditions asN 000000000000NN1992070119941231
B2210  Maxillary self-polymerizing direct reline                                   N 000000000000NN1992070119941231
B2220  Mandibular self-polymerizing direct reline                                  N 000000000000NN1992070119941231
B2230  Maxillary processed reline                                                  N 000000000000NN1992070119941231
B2240  Mandibular processed reline                                                 N 000000000000NN1992070119941231
B2250  Maxillary processed reline and add anterior flange                          N 000000000000NN1992070119941231
B2260  Mandibular processed reline and add anterior flange                         N 000000000000NN1992070119941231
B2270  Maxillary processed reline with functional impress                          N 000000000000NN1992070119941231
B2280  Mandibular processed reline with functional impress                         N 000000000000NN1992070119941231
B2310  Maxillary soft lining with functional impressions                           N 000000000000NN1992070119941231
B2320  Mandibular soft lining with functional impressions                          N 000000000000NN1992070119941231
B2410  Maxillary denture rebasing from new impressions and new base material       N 000000000000NN1992070119941231
B2420  Mandibular denture rebasing from new impressions and new base  material     N 000000000000NN1992070119941231
B2430  Maxillary denture rebasing with functional impressions (3 appointments)     N 000000000000NN1992070119941231
B2440  Mandibular denture rebasing with functional impressions (3 appointments)    N 000000000000NN1992070119941231
B2500  Repair (does not require poured cast)                                       N 000000000000NN1992070119941231
B2510  Repair (requires poured cast)                                               N 000000000000NN1992070119941231
B2520  Repair requiring impressions                                                N 000000000000NN1992070119941231
B2530  Replace tooth in denture (tooth supplied by patient)                        N 000000000000YN1992070119941231
B2540  Additional tooth replaced (supplied by patient)                             N 000000000000YN1992070119941231
B2550  Replace new tooth (tooth supplied by clinic)                                N 000000000000YN1992070119941231
B2560  Each additional new tooth (supplied by clinic)                              N 000000000000YN1992070119941231
B2600  Special occlusal posterior teeth (per set) (specify the type used)          N 000000000000NN1992070119941231
B2610  Temporary reline                                                            N 000000000000NN1992070119941231
B2620  Tissue conditioning                                                         N 000000000000NN1992070119941231
B2630  Impact resistant material per denture                                       N 000000000000NN1992070119941231
B2640  Post-insertion adjustment after 3 months                                    N 000000000000NN1992070119941231
B2660  Surgical template                                                           N 000000000000NN1992070119941231
B2690  Out of office calls                                                         N 000000000000NN1992070119941231
B2810  Standard denture reset anterior or posterior teeth on existing denture      N 000000000000NN1992070119941231
B2840  Standard denture reset anterior or posterior teeth (addition to reline)     N 000000000000NN1992070119941231
B2850  Denture cleaning/polishing once a year                                      N 000000000000NN1992070119941231
B520   Visit                                                                       N 000000000000NN1992070119941031
B520   Visit                                                                       Y 000000000000NN1994110120090630
B521   X-ray                                                                       N 000000000000NN1992070119941031
B521   X-ray                                                                       Y 000000000000NN1994110120090630
B522   Initial visit and report (if history is taken and treatment                 N 000000000000NN1992070119941031
B522   Initial visit and report (if history is taken and treatment                 Y 000000000000NN1994110119960430
B523   Routine office visit or follow-up and treatment W.C.B.                      N 000000000000NN1992070119941031
B523   Routine office visit or follow-up and treatment W.C.B.                      Y 000000000000NN1994110119960430
B524   House calls (such calls must be clearly defined and the maximum             N 000000000000NN1992070119941031
B524   House calls (such calls must be clearly defined and the maximum             Y 000000000000NN1994110119960430
B525   X-rays (all inclusive - at least 2 views must be taken) W.C.B.              N 000000000000NN1992070119941031
B525   X-rays (all inclusive - at least 2 views must be taken) W.C.B.              Y 000000000000NN1994110119960430
B650   Complete oculo-visual assessment including refraction and the               N 000000000000NN1992070120000531
B650   Complete oculo-visual assessment including refraction and the               N 000000000000NN2000060120801231
B651   Partial vision examination (2 or more single diagnostic                     N 000000000000NN1992070120000531
B651   Partial vision examination (2 or more single diagnostic                     N 000000000000NN2000060120250131
B652   External examination (biomicroscopy)                                        N 000000000000NN1992070120000531
B652   External examination (biomicroscopy)                                        N 000000000000NN2000060120030331
B652   External examination                                                        N 000000000000NN2003040120801231
B653   Internal examination (ophthalmoscopy)                                       N 000000000000NN1992070120000531
B653   Internal examination (ophthalmoscopy)                                       N 000000000000NN2000060120030331
B653   Internal examination                                                        N 000000000000NN2003040120801231
B654   Tear-chemistry evaluation                                                   N 000000000000NN1992070120000531
B654   Tear-chemistry evaluation                                                   N 000000000000NN2000060120801231
B655   Anterior chamber (depth measurement)                                        N 000000000000NN1992070120000531
B655   Anterior chamber (depth measurement)                                        N 000000000000NN2000060120801231
B656   Tonometry                                                                   N 000000000000NN1992070120000531
B656   Tonometry                                                                   N 000000000000NN2000060120801231
B657   Colour vision testing (screening)                                           N 000000000000NN1992070120000531
B657   Colour vision testing (screening)                                           N 000000000000NN2000060120801231
B658   Visual fields testing (peripheral, central, perimacular,                    N 000000000000NN1992070120000531
B658   Visual fields testing (peripheral, central, perimacular,                    N 000000000000NN2000060120801231
B659   Refraction                                                                  N 000000000000NN1992070120000531
B659   Refraction                                                                  N 000000000000NN2000060120801231
B660   Examination for low vision aid                                              N 000000000000NN1992070120000531
B660   Examination for low vision aid                                              N 000000000000NN2000060120801231
B661   Computer assisted visual fields                                             N 000000000000NN1992070120000531
B661   Computer assisted visual fields                                             N 000000000000NN2000060120070930
B661   Computer assisted visual fields (CAVF) testing                              N 000000000000NN2007100120140930
B724   New lenses per lens                                                         N 000000000000NN1992070119941231
B724   Single vision lens (distance)                                               N 000000000000NN1995010120160215
B725   Replacement/damaged beyond repair per lens                                  N 000000000000NN1992070119941231
B726   Aphakic, new per lens                                                       N 000000000000NN1992070119941231
B727   Aphakic, damaged per lens                                                   N 000000000000NN1992070119941231
B728   New lenses per lens                                                         N 000000000000NN1992070119941231
B728   Single vision lens (reading)                                                N 000000000000NN1995010120160215
B729   Replacement/damaged beyond repair per lens                                  N 000000000000NN1992070119941231
B731   Aphakic, new per lens                                                       N 000000000000NN1992070119941231
B732   Aphakic, damaged per lens                                                   N 000000000000NN1992070119941231
B733   New lenses per lens                                                         N 000000000000NN1992070119941231
B733   Bifocal lens                                                                N 000000000000NN1995010120160215
B734   Replacement/damaged per lens                                                N 000000000000NN1992070119941231
B735   Aphakic, new per lens                                                       N 000000000000NN1992070119941231
B736   Aphakic, damaged  per lens                                                  N 000000000000NN1992070119941231
B737   New lenses per lens                                                         N 000000000000NN1992070119941231
B737   Trifocal lens                                                               N 000000000000NN1995010120160215
B738   Replacement/damaged per lens                                                N 000000000000NN1992070119941231
B739   Aphakic, new per lens                                                       N 000000000000NN1992070119941231
B740   Aphakic, damaged per lens                                                   N 000000000000NN1992070119941231
B741   New frame (whole)                                                           N 000000000000NN1992070119941231
B742   New frame (whole) Replacement/damaged beyond repair                         N 000000000000NN1992070119941231
B743   Front (repair)                                                              N 000000000000NN1992070119941231
B744   Temple (repair) per side                                                    N 000000000000NN1992070119941231
B745   Hinge (repair) per side                                                     N 000000000000NN1992070119941231
B746   Single vision (distance) lenses with frame                                  N 000000000000NN1992070120160215
B747   Single vision (reading) lenses with frame                                   N 000000000000NN1992070120160215
B748   Bifocal lenses with frame                                                   N 000000000000NN1992070120160215
B749   Trifocal lenses with frame                                                  N 000000000000NN1992070120160215
B900   Comprehensive Visit                                                         N 019000064999NN2007100120090228
B900   Initial Visit                                                               N 019000064999NN2009030120110930
B900   Initial Visit                                                               N 000000000000NN2011100120801231
B901   Follow-up visit                                                             N 019000064999NN2007100120110930
B901   Follow-up visit                                                             N 000000000000NN2011100120801231
B902   First repeat follow-up visit                                                N 019000064999NN2007100120110930
B902   First repeat follow-up visit                                                N 000000000000NN2011100120801231
B903   Second repeat follow-up visit                                               N 019000064999NN2007100120110930
B903   Second repeat follow-up visit                                               N 000000000000NN2011100120801231
B904   Third and subsequent repeat follow-up visits                                N 019000064999NN2007100120110930
B904   Third and subsequent repeat follow-up visits                                N 000000000000NN2011100120801231
B905   Computer assisted visual fields (CAVF) testing                              N 019000064999NN2007100120110930
B905   Computer assisted visual fields (CAVF) testing                              N 000000000000NN2011100120140930
B906   Computer assisted visual fields (CAVF) testing - technical                  N 000000000000NN2014100120801231
B907   Computer assisted visual fields (CAVF) testing - interpretation             N 000000000000NN2014100120801231
B908   Retinal Imaging - technical                                                 N 000000000000NN2014100120801231
B909   Retinal imaging - interpretation                                            N 000000000000NN2014100120801231
B910   Retinal photography - technical                                             N 000000000000NN2014100120801231
B911   Retinal photography - interpretation                                        N 000000000000NN2014100120801231
B912   Telephone advice to a patient or their agent (agent as defined              N 000000000000NN2020050720801231
E  1   Complete blood count (hemoglobin, white blood count, differential,          N 000000000000NN1992070119940731
E  1   Complete blood count (hemoglobin, white blood count, differential, platelet N 000000000000NN1994080120000531
E  1   Complete blood count (hemoglobin, white blood count, differential, platelet N 000000000000NN2000060120801231
E  2   Hemoglobin                                                                  N 000000000000NN1992070120000531
E  2   Hemoglobin                                                                  N 000000000000NN2000060120801231
E  3   Red blood cell count by electronic counting                                 N 000000000000NN1992070120000531
E  3   Red blood cell count by electronic counting                                 N 000000000000NN2000060120801231
E  4   White blood cell count                                                      N 000000000000NN1992070220000531
E  4   White blood cell count                                                      N 000000000000NN2000060120801231
E  5   White blood cell - differential count                                       N 000000000000NN1992070120000531
E  5   White blood cell - differential count                                       N 000000000000NN2000060120801231
E  6   Sedimentation rate                                                          N 000000000000NN1992070120000531
E  6   Sedimentation rate                                                          N 000000000000NN2000060120801231
E  7   Hematocrit                                                                  N 000000000000NN1992070120000531
E  7   Hematocrit                                                                  N 000000000000NN2000060120801231
E  8   Reticulocyte count                                                          N 000000000000NN1992070120000531
E  8   Reticulocyte count                                                          N 000000000000NN2000060120801231
E  9   Acid hemolysis test                                                         N 000000000000NN1992070220000531
E  9   Acid hemolysis test                                                         N 000000000000NN2000060120801231
E 10   Ascorbic test for red cell enzyme deficiency                                N 000000000000NN1992070120000531
E 10   Ascorbic test for red cell enzyme deficiency                                N 000000000000NN2000060120801231
E 11   Autohemolysis with glucose and ATP                                          N 000000000000NN1992070120000531
E 11   Autohemolysis with glucose and ATP                                          N 000000000000NN2000060120801231
E 12   Basophilic stippling                                                        N 000000000000NN1992070119940731
E 13   Bone marrow - interpretation of smear by pathologist or                     N 000000000000NN1992070120000531
E 13   Bone marrow - interpretation of smear by pathologist or                     N 000000000000NN2000060120801231
E 14   Complete blood count as in E1 with check of blood smear by                  N 000000000000NN1992070119940731
E 16   Cold hemolysins (Donath-Landsteiner)                                        N 000000000000NN1992070120000531
E 16   Cold hemolysins (Donath-Landsteiner)                                        N 000000000000NN2000060120801231
E 17   Fibrinolysin (dilute whole blood clot lysis)                                N 000000000000NN1992070120000531
E 17   Fibrinolysin (dilute whole blood clot lysis)                                N 000000000000NN2000060120801231
E 18   Fetal hemoglobin by denaturation                                            N 000000000000NN1992070120000531
E 18   Fetal hemoglobin by denaturation                                            N 000000000000NN2000060120801231
E 19   Fragility test                                                              N 000000000000NN1992070120000531
E 19   Fragility test                                                              N 000000000000NN2000060120801231
E 21   Leukoagglutinins (qualitative)                                              N 000000000000NN1992070120000531
E 21   Leukoagglutinins (qualitative)                                              N 000000000000NN2000060120801231
E 22   Leukocyte alkaline phosphatase (L.A.P.)                                     N 000000000000NN1992070120000531
E 22   Leukocyte alkaline phosphatase (L.A.P.)                                     N 000000000000NN2000060120801231
E 23   Malaria or other parasite                                                   N 000000000000NN1992070120000531
E 23   Malaria or other parasite                                                   N 000000000000NN2000060120801231
E 24   P.N.H. screen                                                               N 000000000000NN1992070120000531
E 24   P.N.H. screen                                                               N 000000000000NN2000060120801231
E 25   Red cell G-6-PD (quantitative)                                              N 000000000000NN1992070120000531
E 25   Red cell G-6-PD (quantitative)                                              N 000000000000NN2000060120801231
E 26   Red cell pyruvate kinase (quantitative)                                     N 000000000000NN1992070120000531
E 26   Red cell pyruvate kinase (quantitative)                                     N 000000000000NN2000060120801231
E 27   Sickle cell identification                                                  N 000000000000NN1992070120000531
E 27   Sickle cell identification                                                  N 000000000000NN2000060120801231
E 29   Blood smear by special request of the referring physician for               N 000000000000NN1992070119940731
E 29   Blood smear by special request of referring physician <Claim only an E1     N 000000000000NN1994080120000531
E 29   Blood smear by special request of referring physician <Claim only an E1     N 000000000000NN2000060120801231
E 30   Bleeding time                                                               N 000000000000NN1992070120000531
E 30   Bleeding time                                                               N 000000000000NN2000060120801231
E 31   Clotting time (Lee-White)                                                   N 000000000000NN1992070120000531
E 31   Clotting time (Lee-White)                                                   N 000000000000NN2000060120801231
E 32   Circulating anticoagulant                                                   N 000000000000NN1992070120000531
E 32   Circulating anticoagulant                                                   N 000000000000NN2000060120801231
E 33   Clot retraction                                                             N 000000000000NN1992070120000531
E 33   Clot retraction                                                             N 000000000000NN2000060120801231
E 34   Factor XI - identification of defect (P.T.A.)                               N 000000000000NN1992070120000531
E 34   Factor XI - identification of defect (P.T.A.)                               N 000000000000NN2000060120801231
E 35   Factor XII - identification of defect (Hageman)                             N 000000000000NN1992070120000531
E 35   Factor XII - identification of defect (Hageman)                             N 000000000000NN2000060120801231
E 36   Contact activation                                                          N 000000000000NN1992070120000531
E 36   Contact activation                                                          N 000000000000NN2000060120801231
E 37   Fibrinogen Quantitative - chemical                                          N 000000000000NN1992070120000531
E 37   Fibrinogen Quantitative - chemical                                          N 000000000000NN2000060120801231
E 38   Fibrinogen Qualitative (eg. fibrindex)                                      N 000000000000NN1992070120000531
E 38   Fibrinogen Qualitative (eg. fibrindex)                                      N 000000000000NN2000060120801231
E 40   Platelet adhesiveness                                                       N 000000000000NN1992070120000531
E 40   Platelet adhesiveness                                                       N 000000000000NN2000060120801231
E 41   Platelet count                                                              N 000000000000NN1992070120000531
E 41   Platelet count                                                              N 000000000000NN2000060120801231
E 42   Prothrombin consumption test                                                N 000000000000NN1992070120000531
E 42   Prothrombin consumption test                                                N 000000000000NN2000060120801231
E 43   Prothrombin time                                                            N 000000000000NN1992070120000531
E 43   Prothrombin time                                                            N 000000000000NN2000060120801231
E 44   Thromboplastin generation test - screening                                  N 000000000000NN1992070120000531
E 44   Thromboplastin generation test - screening                                  N 000000000000NN2000060120801231
E 45   Thromboplastin generation test - full identification of defect              N 000000000000NN1992070120000531
E 45   Thromboplastin generation test - full identification of defect              N 000000000000NN2000060120801231
E 46   Thromboplastin time - partial                                               N 000000000000NN1992070120000531
E 46   Thromboplastin time - partial                                               N 000000000000NN2000060120801231
E 48   Antiglobulin test, direct or indirect or both, when not part of a           N 000000000000NN1992070120000531
E 48   Antiglobulin test, direct or indirect or both, when not part of a           N 000000000000NN2000060120801231
E 49   Antibody identification including antiglobulin test, warm and cold          N 000000000000NN1992070120000531
E 49   Antibody identification including antiglobulin test, warm and cold          N 000000000000NN2000060120801231
E 50   Cross match, per patient, per set-up, includes antiglobulin test            N 000000000000NN1992070120000531
E 50   Cross match, per patient, per set-up, includes antiglobulin test            N 000000000000NN2000060120801231
E 51   ABO grouping                                                                N 000000000000NN1992070120000531
E 51   ABO grouping                                                                N 000000000000NN2000060120801231
E 52   Rh groupings, per antigen                                                   N 000000000000NN1992070120000531
E 52   Rh groupings, per antigen                                                   N 000000000000NN2000060120801231
E 54   Haptoglobins                                                                N 000000000000NN1992070120000531
E 54   Haptoglobins                                                                N 000000000000NN2000060120801231
E 55   Acetone                                                                     N 000000000000NN1992070120000531
E 55   Acetone                                                                     N 000000000000NN2000060120801231
E 56   Alcohol (Ethanol) - blood                                                   N 000000000000NN1992070120000531
E 56   Alcohol (Ethanol) - blood                                                   N 000000000000NN2000060120801231
E 56B  Alcohol (Ethanol) - Gastric fluid                                           N 000000000000NN1992070120000531
E 56B  Alcohol (Ethanol) - Gastric fluid                                           N 000000000000NN2000060120801231
E 56D  Alcohol (Ethanol) - urine                                                   N 000000000000NN1992070120000531
E 56D  Alcohol (Ethanol) - urine                                                   N 000000000000NN2000060120801231
E 57   Amino acid (total)                                                          N 000000000000NN1992070120000531
E 57   Amino acid (total)                                                          N 000000000000NN2000060120801231
E 58   Ammonia                                                                     N 000000000000NN1992070120000531
E 58   Ammonia                                                                     N 000000000000NN2000060120801231
E 59   Amylase                                                                     N 000000000000NN1992070120000531
E 59   Amylase                                                                     N 000000000000NN2000060120801231
E 60   Ascorbic acid                                                               N 000000000000NN1992070120000531
E 60   Ascorbic acid                                                               N 000000000000NN2000060120801231
E 61   Barbiturates - blood                                                        N 000000000000NN1992070120000531
E 61   Barbiturates - blood                                                        N 000000000000NN2000060120801231
E 62   Bilirubin - total and fractionation (conjugated)                            N 000000000000NN1992070120000531
E 62   Bilirubin - total and fractionation (conjugated)                            N 000000000000NN2000060120801231
E 63   Bilirubin - total - without fractionation                                   N 000000000000NN1992070120000531
E 63   Bilirubin - total - without fractionation                                   N 000000000000NN2000060120801231
E 65   Bromide (quantitative)                                                      N 000000000000NN1992070120000531
E 65   Bromide (quantitative)                                                      N 000000000000NN2000060120801231
E 68   Calcium                                                                     N 000000000000NN1992070120000531
E 68   Calcium                                                                     N 000000000000NN2000060120801231
E 70   Carbon monoxide (quantitative)                                              N 000000000000NN1992070120000531
E 70   Carbon monoxide (quantitative)                                              N 000000000000NN2000060120801231
E 72   Carotene                                                                    N 000000000000NN1992070120000531
E 72   Carotene                                                                    N 000000000000NN2000060120801231
E 75   Ceruloplasmin (quantitative)                                                N 000000000000NN1992070120000531
E 75   Ceruloplasmin (quantitative)                                                N 000000000000NN2000060120801231
E 76   Chloride                                                                    N 000000000000NN1992070120000531
E 76   Chloride                                                                    N 000000000000NN2000060120801231
E 77   Cholesterol total                                                           N 000000000000NN1992070120000531
E 77   Cholesterol total                                                           N 000000000000NN2000060120801231
E 79   Acetylcholinesterase (red cells)                                            N 000000000000NN1992070120000531
E 79   Acetylcholinesterase (red cells)                                            N 000000000000NN2000060120801231
E 79A  Cholinesterase (serum) total                                                N 000000000000NN1992070120000531
E 79A  Cholinesterase (serum) total                                                N 000000000000NN2000060120801231
E 79B  Cholinesterase (serum) isoenzyme fractionation                              N 000000000000NN1992070120000531
E 79B  Cholinesterase (serum) isoenzyme fractionation                              N 000000000000NN2000060120801231
E 81   Carbon dioxide (C02)                                                        N 000000000000NN1992070120000531
E 81   Carbon dioxide (C02)                                                        N 000000000000NN2000060120801231
E 83   Creatine                                                                    N 000000000000NN1992070119940731
E 84   Creatinine                                                                  N 000000000000NN1992070120000531
E 84   Creatinine                                                                  N 000000000000NN2000060120801231
E 86   Cryoprotein per fraction                                                    N 000000000000NN1992070120000531
E 86   Cryoprotein per fraction                                                    N 000000000000NN2000060120801231
E 88   Fatty acid (total)                                                          N 000000000000NN1992070120000531
E 88   Fatty acid (total)                                                          N 000000000000NN2000060120801231
E 90   Galactose tolerance - I.V.                                                  N 000000000000NN1992070120000531
E 90   Galactose tolerance - I.V.                                                  N 000000000000NN2000060120801231
E 92   Glucose - fasting                                                           N 000000000000NN1992070120000531
E 92   Glucose - fasting                                                           N 000000000000NN2000060120801231
E 92B  Glucose - Gestational Diabetic screen                                       N 000000000000NN1992070120000531
E 92B  Glucose - Gestational Diabetic screen                                       N 000000000000NN2000060120801231
E 92D  Glucose - spot                                                              N 000000000000NN1992070120000531
E 92D  Glucose - spot                                                              N 000000000000NN2000060120801231
E 92E  Glucose - two hour P.C.                                                     N 000000000000NN1992070120000531
E 92E  Glucose - two hour P.C.                                                     N 000000000000NN2000060120801231
E 93   Glucose - stick test                                                        N 000000000000NN1992070120000531
E 93   Glucose - stick test                                                        N 000000000000NN2000060120801231
E 94   Glucose tolerance - includes urines as required   four to six               N 000000000000NN1992070119940731
E 94   Glucose tolerance - includes urines as required, four or more specimens     N 000000000000NN1994080120000531
E 94   Glucose tolerance - includes urines as required, four or more specimens     N 000000000000NN2000060120801231
E 95   Glucose tolerance - includes urines as required   over six                  N 000000000000NN1992070119940731
E 96   Hemoglobin (plasma) quantitative                                            N 000000000000NN1992070120000531
E 96   Hemoglobin (plasma) quantitative                                            N 000000000000NN2000060120801231
E 97A  Hemoglobin electrophoresis, together with quantitation of abnormal          N 000000000000NN1992070120000531
E 97A  Hemoglobin electrophoresis, together with quantitation of abnormal          N 000000000000NN2000060120801231
E 98   Immunoelectrophoresis (1 membrane)                                          N 000000000000NN1992070120000531
E 98   Immunoelectrophoresis (1 membrane)                                          N 000000000000NN2000060120801231
E 98A  Additional slides to a maximum of two                                       N 000000000000NN1992070120000531
E 98A  Additional slides to a maximum of two                                       N 000000000000NN2000060120801231
E 99   Immunoglobulin quantitation of IgG, IgA, and IgM, inclusive                 N 000000000000NN1992070120000531
E 99   Immunoglobulin quantitation of IgG, IgA, and IgM, inclusive                 N 000000000000NN2000060120801231
E 99A  Immunoglobulin quantitation of any of IgG, IgA, IgM, IgD each               N 000000000000NN1992070120000531
E 99A  Immunoglobulin quantitation of any of IgG, IgA, IgM, IgD each               N 000000000000NN2000060120801231
E103   Iron - serum and iron binding capacity                                      N 000000000000NN1992070120000531
E103   Iron - serum and iron binding capacity                                      N 000000000000NN2000060120801231
E104   Lactic acid or lactate                                                      N 000000000000NN1992070120000531
E104   Lactic acid or lactate                                                      N 000000000000NN2000060120801231
E105   Lactic dehydrogenase (LD)                                                   N 000000000000NN1992070120000531
E105   Lactic dehydrogenase (LD)                                                   N 000000000000NN2000060120801231
E106   LD Isoenzyme fractionation                                                  N 000000000000NN1992070120000531
E106   LD Isoenzyme fractionation                                                  N 000000000000NN2000060120801231
E107   Lipase                                                                      N 000000000000NN1992070120000531
E107   Lipase                                                                      N 000000000000NN2000060120801231
E108   Lipoproteins by electrophoresis                                             N 000000000000NN1992070119940731
E111   Magnesium                                                                   N 000000000000NN1992070120000531
E111   Magnesium                                                                   N 000000000000NN2000060120801231
E114   Methaemalbumin (Schumm test)                                                N 000000000000NN1992070120000531
E114   Methaemalbumin (Schumm test)                                                N 000000000000NN2000060120151130
E114   Methemalbumin (Schumm test)                                                 N 000000000000NN2015120120801231
E116   Osmolarity                                                                  N 000000000000NN1992070120000531
E116   Osmolarity                                                                  N 000000000000NN2000060120801231
E119   pH of blood                                                                 N 000000000000NN1992070120000531
E119   pH of blood                                                                 N 000000000000NN2000060120801231
E119A  pCO2                                                                        N 000000000000NN1992070120000531
E119A  pCO2                                                                        N 000000000000NN2000060120801231
E121A  pO2                                                                         N 000000000000NN1992070120000531
E121A  pO2                                                                         N 000000000000NN2000060120801231
E122   Phenylalanine - chemical quantitative                                       N 000000000000NN1992070120000531
E122   Phenylalanine - chemical quantitative                                       N 000000000000NN2000060120801231
E123   Phosphatase alkaline                                                        N 000000000000NN1992070120000531
E123   Phosphatase alkaline                                                        N 000000000000NN2000060120801231
E123A  Phosphatase alkaline, heat stable fractionation                             N 000000000000NN1992070119940731
E123B  Phosphatase alkaline, isoenzyme fractionation                               N 000000000000NN1992070120000531
E123B  Phosphatase alkaline, isoenzyme fractionation                               N 000000000000NN2000060120801231
E123D  Phosphatase acid                                                            N 000000000000NN1992070120000531
E123D  Phosphatase acid                                                            N 000000000000NN2000060120801231
E124   Phospholipids                                                               N 000000000000NN1992070120000531
E124   Phospholipids                                                               N 000000000000NN2000060120801231
E125   Phosphorus, inorganic                                                       N 000000000000NN1992070120000531
E125   Phosphorus, inorganic                                                       N 000000000000NN2000060120801231
E127   Potassium                                                                   N 000000000000NN1992070120000531
E127   Potassium                                                                   N 000000000000NN2000060120801231
E128   Proteins - total only                                                       N 000000000000NN1992070120000531
E128   Proteins - total only                                                       N 000000000000NN2000060120801231
E130   Proteins - electrophoresis                                                  N 000000000000NN1992070120000531
E130   Proteins - electrophoresis                                                  N 000000000000NN2000060120801231
E135   Salicylates - blood                                                         N 000000000000NN1992070120000531
E135   Salicylates - blood                                                         N 000000000000NN2000060120801231
E137   Sodium                                                                      N 000000000000NN1992070120000531
E137   Sodium                                                                      N 000000000000NN2000060120801231
E139   Spectrophotometric examination                                              N 000000000000NN1992070119940731
E142   Triglyceride                                                                N 000000000000NN1992070120000531
E142   Triglyceride                                                                N 000000000000NN2000060120801231
E144   Urea                                                                        N 000000000000NN1992070120000531
E144   Urea                                                                        N 000000000000NN2000060120801231
E145   Uric acid                                                                   N 000000000000NN1992070120000531
E145   Uric acid                                                                   N 000000000000NN2000060120801231
E146   Vitamin A tolerance - includes vitamin A (4 specimens)                      N 000000000000NN1992070120000531
E146   Vitamin A tolerance - includes vitamin A (4 specimens)                      N 000000000000NN2000060120801231
E147   Vitamin A                                                                   N 000000000000NN1992070120000531
E147   Vitamin A                                                                   N 000000000000NN2000060120801231
E148   Vitamin B 12                                                                N 000000000000NN1992070120000531
E148   Vitamin B 12                                                                N 000000000000NN2000060120801231
E150   Multi-channel analysis                                                      N 000000000000NN1992070120000531
E150   Multi-channel analysis                                                      N 000000000000NN2000060120801231
E150E  Enzyme, serum otherwise not listed                                          N 000000000000NN1992070120000531
E150E  Enzyme, serum otherwise not listed                                          N 000000000000NN2000060120801231
E151   Urinalysis routine examination - including exam of centrifuged              N 000000000000NN1992070120000531
E151   Urinalysis routine examination - including exam of centrifuged              N 000000000000NN2000060120801231
E152   Urinalysis without microscopic examination of centrifuged sediment          N 000000000000NN1992070120000531
E152   Urinalysis without microscopic examination of centrifuged sediment          N 000000000000NN2000060120801231
E153   Microscopic examination, alone                                              N 000000000000NN1992070120000531
E153   Microscopic examination, alone                                              N 000000000000NN2000060120801231
E155   Addis count                                                                 N 000000000000NN1992070119940731
E157   Amino acids - total (chemical)                                              N 000000000000NN1992070120000531
E157   Amino acids - total (chemical)                                              N 000000000000NN2000060120801231
E158   Amino acids - paper chromatography screening                                N 000000000000NN1992070120000531
E158   Amino acids - paper chromatography screening                                N 000000000000NN2000060120801231
E159   Amino acids - chromatography (semi-quantitative) (includes sugars)          N 000000000000NN1992070120000531
E159   Amino acids - chromatography (semi-quantitative) (includes sugars)          N 000000000000NN2000060120801231
E162   Amylase                                                                     N 000000000000NN1992070120000531
E162   Amylase                                                                     N 000000000000NN2000060120801231
E163   Ascorbic acid (quantitative)                                                N 000000000000NN1992070120000531
E163   Ascorbic acid (quantitative)                                                N 000000000000NN2000060120801231
E164   Barbiturates - urine - quantitative                                         N 000000000000NN1992070120000531
E164   Barbiturates - urine - quantitative                                         N 000000000000NN2000060120801231
E165   Barbiturates - urine - qualitative                                          N 000000000000NN1992070120000531
E165   Barbiturates - urine - qualitative                                          N 000000000000NN2000060120801231
E167   Bile pigments and salts (qualitative)                                       N 000000000000NN1992070119940731
E169   Calcium (quantitative)                                                      N 000000000000NN1992070120000531
E169   Calcium (quantitative)                                                      N 000000000000NN2000060120801231
E172A  Chlorides (quantitative)                                                    N 000000000000NN1992070120000531
E172A  Chlorides (quantitative)                                                    N 000000000000NN2000060120801231
E175   Sugars - chromatography, screening                                          N 000000000000NN1992070120000531
E175   Sugars - chromatography, screening                                          N 000000000000NN2000060120801231
E175A  Sugars - chromatography, semi-quantitative                                  N 000000000000NN1992070120000531
E175A  Sugars - chromatography, semi-quantitative                                  N 000000000000NN2000060120801231
E177   Creatine                                                                    N 000000000000NN1992070119940731
E178   Creatinine (quantitative)                                                   N 000000000000NN1992070120000531
E178   Creatinine (quantitative)                                                   N 000000000000NN2000060120801231
E179   Creatinine clearance test                                                   N 000000000000NN1992070120000531
E179   Creatinine clearance test                                                   N 000000000000NN2000060120801231
E181   Concentration test only                                                     N 000000000000NN1992070120000531
E181   Concentration test only                                                     N 000000000000NN2000060120801231
E182   Coproporphyrin (quantitative)                                               N 000000000000NN1992070120000531
E182   Coproporphyrin (quantitative)                                               N 000000000000NN2000060120801231
E183   Coproporphyrin (qualitative)                                                N 000000000000NN1992070120000531
E183   Coproporphyrin (qualitative)                                                N 000000000000NN2000060120801231
E184   Cystine (screening)                                                         N 000000000000NN1992070120000531
E184   Cystine (screening)                                                         N 000000000000NN2000060120801231
E188   Protein electrophoresis                                                     N 000000000000NN1992070120000531
E188   Protein electrophoresis                                                     N 000000000000NN2000060120801231
E189   Glucose (quantitative)                                                      N 000000000000NN1992070120000531
E189   Glucose (quantitative)                                                      N 000000000000NN2000060120801231
E190   Heavy metals, each                                                          N 000000000000NN1992070120000531
E190   Heavy metals, each                                                          N 000000000000NN2000060120801231
E198   Melanin                                                                     N 000000000000NN1992070120000531
E198   Melanin                                                                     N 000000000000NN2000060120801231
E200   Myoglobin                                                                   N 000000000000NN1992070120000531
E200   Myoglobin                                                                   N 000000000000NN2000060120801231
E202   Osmolality                                                                  N 000000000000NN1992070120000531
E202   Osmolality                                                                  N 000000000000NN2000060120801231
E203   Concentration test with osmolality                                          N 000000000000NN1992070120000531
E203   Concentration test with osmolality                                          N 000000000000NN2000060120801231
E204   Phenothiazine tranquilizers - urine (screen)                                N 000000000000NN1992070120000531
E204   Phenothiazine tranquilizers - urine (screen)                                N 000000000000NN2000060120801231
E205   Phenylpyruvic acid (qualitative) (P.K.U.)                                   N 000000000000NN1992070120000531
E205   Phenylpyruvic acid (qualitative) (P.K.U.)                                   N 000000000000NN2000060120801231
E206   Phosphorus                                                                  N 000000000000NN1992070120000531
E206   Phosphorus                                                                  N 000000000000NN2000060120801231
E207   Porphobilinogen (qualitative)                                               N 000000000000NN1992070120000531
E207   Porphobilinogen (qualitative)                                               N 000000000000NN2000060120801231
E208   Porphyrins (quantitative)                                                   N 000000000000NN1992070120000531
E208   Porphyrins (quantitative)                                                   N 000000000000NN2000060120801231
E209   Potassium (quantitative)                                                    N 000000000000NN1992070120000531
E209   Potassium (quantitative)                                                    N 000000000000NN2000060120801231
E210   Protein (quantitative) 24 hour                                              N 000000000000NN1992070120000531
E210   Protein (quantitative) 24 hour                                              N 000000000000NN2000060120801231
E212   Salicylates - urine                                                         N 000000000000NN1992070120000531
E212   Salicylates - urine                                                         N 000000000000NN2000060120801231
E213   Serotonin - quantitative                                                    N 000000000000NN1992070120000531
E213   Serotonin - quantitative                                                    N 000000000000NN2000060120801231
E214   Serotonin - qualitative                                                     N 000000000000NN1992070120000531
E214   Serotonin - qualitative                                                     N 000000000000NN2000060120801231
E215   Sodium (quantitative)                                                       N 000000000000NN1992070120000531
E215   Sodium (quantitative)                                                       N 000000000000NN2000060120801231
E216   Spectrophotometric examination                                              N 000000000000NN1992070119940731
E219   Urea clearance                                                              N 000000000000NN1992070120000531
E219   Urea clearance                                                              N 000000000000NN2000060120801231
E221   Urobilinogen - quantitative                                                 N 000000000000NN1992070120000531
E221   Urobilinogen - quantitative                                                 N 000000000000NN2000060120801231
E222   Urobilinogen - qualitative                                                  N 000000000000NN1992070120000531
E222   Urobilinogen - qualitative                                                  N 000000000000NN2000060120801231
E223   Uroporphyrin (quantitative)                                                 N 000000000000NN1992070120000531
E223   Uroporphyrin (quantitative)                                                 N 000000000000NN2000060120801231
E224   Uric acid                                                                   N 000000000000NN1992070120000531
E224   Uric acid                                                                   N 000000000000NN2000060120801231
E225   Aldosterone                                                                 N 000000000000NN1992070120000531
E225   Aldosterone                                                                 N 000000000000NN2000060120801231
E226   Catecholamines                                                              N 000000000000NN1992070120000531
E226   Catecholamines                                                              N 000000000000NN2000060120801231
E227   Estriol                                                                     N 000000000000NN1992070119940731
E229   17-Ketosteroids                                                             N 000000000000NN1992070119940731
E234   Pregnanediol or pregnanetriol                                               N 000000000000NN1992070120000531
E234   Pregnanediol or pregnanetriol                                               N 000000000000NN2000060120801231
E235   Pregnanediol and pregnanetriol                                              N 000000000000NN1992070120000531
E235   Pregnanediol and pregnanetriol                                              N 000000000000NN2000060120801231
E237   V.M.A. - quantitative                                                       N 000000000000NN1992070120000531
E237   V.M.A. - quantitative                                                       N 000000000000NN2000060120801231
E238   V.M.A. Screening                                                            N 000000000000NN1992070120000531
E238   V.M.A. Screening                                                            N 000000000000NN2000060120801231
E239A  Chloride                                                                    N 000000000000NN1992070120000531
E239A  Chloride                                                                    N 000000000000NN2000060120801231
E241   Glucose                                                                     N 000000000000NN1992070120000531
E241   Glucose                                                                     N 000000000000NN2000060120801231
E242   Protein                                                                     N 000000000000NN1992070120000531
E242   Protein                                                                     N 000000000000NN2000060120801231
E243   Protein electrophoresis                                                     N 000000000000NN1992070120000531
E243   Protein electrophoresis                                                     N 000000000000NN2000060120801231
E245   Fat, total                                                                  N 000000000000NN1992070120000531
E245   Fat, total                                                                  N 000000000000NN2000060120801231
E248   Occult blood                                                                N 000000000000NN1992070120000531
E248   Occult blood                                                                N 000000000000NN2000060120081130
E248   Occult blood, diagnostic only                                               N 000000000000NN2008120120801231
E248A  Occult blood, for screening of average risk patients                        N 050000000000NN2008120120801231
E250   Trypsin (semi-quantitative)                                                 N 000000000000NN1992070120000531
E250   Trypsin (semi-quantitative)                                                 N 000000000000NN2000060120801231
E251   Urobilinogen (quantitative)                                                 N 000000000000NN1992070120000531
E251   Urobilinogen (quantitative)                                                 N 000000000000NN2000060120801231
E253   Antibiotic level, estimation of                                             N 000000000000NN1992070120000531
E253   Antibiotic level, estimation of                                             N 000000000000NN2000060120801231
E254   Antibiotic sensitivity testing - 3 antibiotics or less per                  N 000000000000NN1992070119940731
E255   Antibiotics sensitivity testing - 4 antibiotics or more per                 N 000000000000NN1992070119940731
E256   Autogenous vaccine, preparation of                                          N 000000000000NN1992070120000531
E256   Autogenous vaccine, preparation of                                          N 000000000000NN2000060120801231
E258   Culture, routine (including smears if necessary)                            N 000000000000NN1992070119940731
E258B  Bacterial culture including, when necessary, indentification, sensitivity   N 000000000000NN1994080120000531
E258B  Bacterial culture including, when necessary, indentification, sensitivity   N 000000000000NN2000060120801231
E259   Culture, where differential media, serological tests and                    N 000000000000NN1992070119940731
E260   Culture - blood - including primary collection subculture and               N 000000000000NN1992070119940731
E261   Culture - Tuberculosis - atypical or Mycobacterium tuberculosis             N 000000000000NN1992070120000531
E261   Culture - Tuberculosis - atypical or Mycobacterium tuberculosis             N 000000000000NN2000060120801231
E262   Microscopic identification (Gram-stain without culture, worm                N 000000000000NN1992070120000531
E262   Microscopic identification (Gram-stain without culture, worm                N 000000000000NN2000060120801231
E262A  Wet mount and/or hanging drop preparations (e.g. Trichomonas                N 000000000000NN1992070120000531
E262A  Wet mount and/or hanging drop preparations (e.g. Trichomonas                N 000000000000NN2000060120801231
E263   Microscopic examination for parasites with concentration methods            N 000000000000NN1992070120000531
E263   Microscopic examination for parasites with concentration methods            N 000000000000NN2000060120801231
E263A  Microscopic examination of smear for M. tuberculosis or atypical            N 000000000000NN1992070120000531
E263A  Microscopic examination of smear for M. tuberculosis or atypical            N 000000000000NN2000060120801231
E264   Darkfield microscopy - identification of Treponema, Borrelia, etc           N 000000000000NN1992070120000531
E264   Darkfield microscopy - identification of Treponema, Borrelia, etc           N 000000000000NN2000060120801231
E265   Trophozoites - amoeba in stool - direct examination                         N 000000000000NN1992070120000531
E265   Trophozoites - amoeba in stool - direct examination                         N 000000000000NN2000060120801231
E266   Serological typing for specific organisms, e.g Lancefield Grouping          N 000000000000NN1992070119940731
E267   Additional individual screening eg. up to 10 antisera                       N 000000000000NN1992070119940731
E269   Phage typing per organism                                                   N 000000000000NN1992070120000531
E269   Phage typing per organism                                                   N 000000000000NN2000060120801231
E270   Culture - tissue biopsy (includes grinding specimen)                        N 000000000000NN1992070119940731
E271   Urinary & other bacteria counts                                             N 000000000000NN1992070119940731
E272   Bacteruria screening test                                                   N 000000000000NN1992070120000531
E272   Bacteruria screening test                                                   N 000000000000NN2000060120801231
E273   Smear - (KOH) preparation and examination                                   N 000000000000NN1992070120000531
E273   Smear - (KOH) preparation and examination                                   N 000000000000NN2000060120801231
E274   Culture, fungal and identify                                                N 000000000000NN1992070120000531
E274   Culture, fungal and identify                                                N 000000000000NN2000060120801231
E275   Yeast identification - serological or by chlamydiospores                    N 000000000000NN1992070120000531
E275   Yeast identification - serological or by chlamydiospores                    N 000000000000NN2000060120801231
E277   Serologic identification - antibodies, using up to four antigens,           N 000000000000NN1992070120000531
E277   Serologic identification - antibodies, using up to four antigens,           N 000000000000NN2000060120801231
E278   ASOT - antistreptolysin 'O' titre (ASO)                                     N 000000000000NN1992070120000531
E278   ASOT - antistreptolysin 'O' titre (ASO)                                     N 000000000000NN2000060120801231
E279   Cold agglutinins with titre                                                 N 000000000000NN1992070120000531
E279   Cold agglutinins with titre                                                 N 000000000000NN2000060120801231
E280   Examination of stool for cryptosporidium including stain and                N 000000000000NN1992070120000531
E280   Examination of stool for cryptosporidium including stain and                N 000000000000NN2000060120801231
E281   Infectious mononucleosis heterophile agglutination with absorption          N 000000000000NN1992070120000531
E281   Infectious mononucleosis heterophile agglutination with absorption          N 000000000000NN2000060120801231
E283   Serological test for syphilis (S.T.S.)                                      N 000000000000NN1992070120000531
E283   Serological test for syphilis (S.T.S.)                                      N 000000000000NN2000060120801231
E284   Widal - complete                                                            N 000000000000NN1992070119940731
E285   Widal - single antigen                                                      N 000000000000NN1992070119940731
E286   Bovine milk antibodies                                                      N 000000000000NN1992070120000531
E286   Bovine milk antibodies                                                      N 000000000000NN2000060120801231
E287   Antinuclear antibodies by fluorescence, screen, e.g. Fluorescence           N 000000000000NN1992070120000531
E287   Antinuclear antibodies by fluorescence, screen, e.g. Fluorescence           N 000000000000NN2000060120801231
E287A  Antinuclear antibody titre if screen positive (not to be claimed            N 000000000000NN1992070120000531
E287A  Antinuclear antibody titre if screen positive (not to be claimed            N 000000000000NN2000060120801231
E288   Antibody screen by immunofluorescence antibody, other than                  N 000000000000NN1992070120000531
E288   Antibody screen by immunofluorescence antibody, other than                  N 000000000000NN2000060120801231
E288A  Antibody, titre of, identified in E288 screen as positive (maximum          N 000000000000NN1992070120000531
E288A  Antibody, titre of, identified in E288 screen as positive (maximum          N 000000000000NN2000060120801231
E291   Calculus analysis (qualitative)                                             N 000000000000NN1992070120000531
E291   Calculus analysis (qualitative)                                             N 000000000000NN2000060120801231
E293   Glutin antibodies                                                           N 000000000000NN1992070120000531
E293   Glutin antibodies                                                           N 000000000000NN2000060120801231
E294   Gastric analysis - single specimen                                          N 000000000000NN1992070120000531
E294   Gastric analysis - single specimen                                          N 000000000000NN2000060120801231
E295   Gastric analysis - with histamine                                           N 000000000000NN1992070120000531
E295   Gastric analysis - with histamine                                           N 000000000000NN2000060120801231
E297   Inclusion bodies                                                            N 000000000000NN1992070120000531
E297   Inclusion bodies                                                            N 000000000000NN2000060120801231
E298   Infectious mononucleosis - immunologic screen                               N 000000000000NN1992070120000531
E298   Infectious mononucleosis - immunologic screen                               N 000000000000NN2000060120801231
E299   Thyroglobulin - antithyroglobulin antibodies                                N 000000000000NN1992070120000531
E299   Thyroglobulin - antithyroglobulin antibodies                                N 000000000000NN2000060120801231
E299A  Thyroid antibodies - microsomal antibodies                                  N 000000000000NN1992070120000531
E299A  Thyroid antibodies - microsomal antibodies                                  N 000000000000NN2000060120801231
E300   Thyroid antibodies - screening test, e.g. latex                             N 000000000000NN1992070120000531
E300   Thyroid antibodies - screening test, e.g. latex                             N 000000000000NN2000060120801231
E301   Karyotype determination by tissue culture                                   N 000000000000NN1992070120000531
E301   Karyotype determination by tissue culture                                   N 000000000000NN2000060120801231
E303   Rheumatoid factor qualitative                                               N 000000000000NN1992070120000531
E303   Rheumatoid factor qualitative                                               N 000000000000NN2000060120801231
E304   Antinuclear antibody - latex antinuclear nucleoprotein test                 N 000000000000NN1992070120000531
E304   Antinuclear antibody - latex antinuclear nucleoprotein test                 N 000000000000NN2000060120801231
E305   Semen analysis, including sperm count                                       N 000000000000NN1992070120000531
E305   Semen analysis, including sperm count                                       N 000000000000NN2000060120801231
E305A  Sperm agglutination test                                                    N 000000000000NN1992070120000531
E305A  Sperm agglutination test                                                    N 000000000000NN2000060120801231
E305B  Semen - examination for presence of sperm only                              N 000000000000NN1992070120000531
E305B  Semen - examination for presence of sperm only                              N 000000000000NN2000060120801231
E307   Eosinophils - sputum or nasal secretions                                    N 000000000000NN1992070120000531
E307   Eosinophils - sputum or nasal secretions                                    N 000000000000NN2000060120801231
E309A  Sweat chloride test including collection of specimen                        N 000000000000NN1992070120000531
E309A  Sweat chloride test including collection of specimen                        N 000000000000NN2000060120801231
E310   Breast cytopathology (processing, examination and interpretation)           NF010000000000NN1992070120000531
E310   Breast cytopathology (processing, examination and interpretation)           NF010000000000NN2000060120801231
E311   Cervical cytopathology (processing, examination and                         NF000000000000NN1992070120000531
E311   Cervical cytopathology (processing, examination and                         NF000000000000NN2000060120801231
E312   Gastric or colon washings for cytopathology (collection only)               NF010000000000NN1992070120000531
E312   Gastric or colon washings for cytopathology (collection only)               NF010000000000NN2000060120801231
E313   Spermatozoa, cytopathological examination on fomites or invasion            N 000000000000NN1992070120000531
E313   Spermatozoa, cytopathological examination on fomites or invasion            N 000000000000NN2000060120801231
E314   C.S.F. cytopathology (processing, examination and interpretation)           N 000000000000NN1992070120000531
E314   C.S.F. cytopathology (processing, examination and interpretation)           N 000000000000NN2000060120801231
E315   Frozen section and quick report                                             N 000000000000NN1992070120000531
E315   Frozen section and quick report                                             N 000000000000NN2000060120801231
E317   Gastric or colon wash cytopathology (excluding collection)                  N 000000000000NN1992070120000531
E317   Gastric or colon wash cytopathology (excluding collection)                  N 000000000000NN2000060120801231
E318   Oral cytopathology (processing, examination and interpretation)             N 000000000000NN1992070120000531
E318   Oral cytopathology (processing, examination and interpretation)             N 000000000000NN2000060120801231
E319   Sex chromatin determination (vaginal or oral)                               N 000000000000NN1992070120000531
E319   Sex chromatin determination (vaginal or oral)                               N 000000000000NN2000060120801231
E320   Serous fluid cytopathology (processing, examination and                     N 000000000000NN1992070120000531
E320   Serous fluid cytopathology (processing, examination and                     N 000000000000NN2000060120801231
E321   Sputum or bronchial wash cytopathology (processing, examination             N 000000000000NN1992070120000531
E321   Sputum or bronchial wash cytopathology (processing, examination             N 000000000000NN2000060120801231
E322   Tissue, gross and microscopic examination with report                       N 000000000000NN1992070120000531
E322   Tissue, gross and microscopic examination with report                       N 000000000000NN2000060120801231
E323   Urine cytopathology (processing, examination and interpretation)            N 000000000000NN1992070120000531
E323   Urine cytopathology (processing, examination and interpretation)            N 000000000000NN2000060120801231
E324   Vaginal cytopathology for hormonal status (maturation index plus            NF010000000000NN1992070120000531
E324   Vaginal cytopathology for hormonal status (maturation index plus            NF010000000000NN2000060120801231
E333   Blood gas studies - includes serial blood, pH, C02 and oxygen               N 000000000000NN1992070120000531
E333   Blood gas studies - includes serial blood, pH, C02 and oxygen               N 000000000000NN2000060120801231
E336   Determination of blood gases, pH, pCO2, pO2                                 N 000000000000NN1992070120000531
E336   Determination of blood gases, pH, pCO2, pO2                                 N 000000000000NN2000060120801231
E337   Urea breath test (C-13) for Helicobacter pylori                             N 000000000000NN2005040120801231
E346   Thyroid uptake                                                              N 000000000000NN1992070120000531
E346   Thyroid uptake                                                              N 000000000000NN2000060120801231
E347   Thyroid uptake and scan                                                     N 000000000000NN1992070120000531
E347   Thyroid uptake and scan                                                     N 000000000000NN2000060120801231
E349   T.S.H. stimulation test (exclusive of T.S.H cost)                           N 000000000000NN1992070120000531
E349   T.S.H. stimulation test (exclusive of T.S.H cost)                           N 000000000000NN2000060120801231
E350   T3 uptake                                                                   N 000000000000NN1992070120000531
E350   T3 uptake                                                                   N 000000000000NN2000060120801231
E351   Thyroid suppression test                                                    N 000000000000NN1992070120000531
E351   Thyroid suppression test                                                    N 000000000000NN2000060120801231
E353   T4 corrected for abnormal thyroid binding protein                           N 000000000000NN1992070120000531
E353   T4 corrected for abnormal thyroid binding protein                           N 000000000000NN2000060120801231
E354   Red cell survival                                                           N 000000000000NN1992070120000531
E354   Red cell survival                                                           N 000000000000NN2000060120801231
E355   Red cell volume                                                             N 000000000000NN1992070120000531
E355   Red cell volume                                                             N 000000000000NN2000060120801231
E356   Plasma iron turnover                                                        N 000000000000NN1992070120000531
E356   Plasma iron turnover                                                        N 000000000000NN2000060120801231
E356A  Radioactive iron (59) binding capacity determination                        N 000000000000NN1992070120000531
E356A  Radioactive iron (59) binding capacity determination                        N 000000000000NN2000060120801231
E357   Plasma iron red cell utilization                                            N 000000000000NN1992070120000531
E357   Plasma iron red cell utilization                                            N 000000000000NN2000060120801231
E358   Survey sites of erythropoiesis                                              N 000000000000NN1992070120000531
E358   Survey sites of erythropoiesis                                              N 000000000000NN2000060120801231
E359   Red cell survival and splenic sequestration                                 N 000000000000NN1992070120000531
E359   Red cell survival and splenic sequestration                                 N 000000000000NN2000060120801231
E360   Plasma volume (direct)                                                      N 000000000000NN1992070120000531
E360   Plasma volume (direct)                                                      N 000000000000NN2000060120801231
E366   Schilling test - with or without intrinsic factor                           N 000000000000NN1992070120000531
E366   Schilling test - with or without intrinsic factor                           N 000000000000NN2000060120801231
E367   1131 triolein studies                                                       N 000000000000NN1992070120000531
E367   1131 triolein studies                                                       N 000000000000NN2000060120801231
E368   1131 oleic acid study                                                       N 000000000000NN1992070120000531
E368   1131 oleic acid study                                                       N 000000000000NN2000060120801231
E369   Gastrointestinal blood loss (quantitative) (include survival)               N 000000000000NN1992070120000531
E369   Gastrointestinal blood loss (quantitative) (include survival)               N 000000000000NN2000060120801231
E370   Localization gastrointestinal tract bleeding                                N 000000000000NN1992070120000531
E370   Localization gastrointestinal tract bleeding                                N 000000000000NN2000060120801231
E371   Protein losing enteropathy                                                  N 000000000000NN1992070120000531
E371   Protein losing enteropathy                                                  N 000000000000NN2000060120801231
E400   Eosinophil count - direct                                                   N 000000000000NN1992070120000531
E400   Eosinophil count - direct                                                   N 000000000000NN2000060120801231
E401   Folic acid, serum                                                           N 000000000000NN1992070119940731
E401A  Folic acid, red cell                                                        N 000000000000NN1992070120000531
E401A  Folic acid, red cell                                                        N 000000000000NN2000060120801231
E404   Hemosiderin stain on blood, bone marrow or urine smear                      N 000000000000NN1992070120000531
E404   Hemosiderin stain on blood, bone marrow or urine smear                      N 000000000000NN2000060120801231
E405   Factor VIII (A.H.G.) assay                                                  N 000000000000NN1992070120000531
E405   Factor VIII (A.H.G.) assay                                                  N 000000000000NN2000060120801231
E406   Factor IX (P.T.C.) assay                                                    N 000000000000NN1992070120000531
E406   Factor IX (P.T.C.) assay                                                    N 000000000000NN2000060120801231
E409   Cell count                                                                  N 000000000000NN1992070120000531
E409   Cell count                                                                  N 000000000000NN2000060120801231
E410   C. reactive protein                                                         N 000000000000NN1992070120000531
E410   C. reactive protein                                                         N 000000000000NN2000060120801231
E411   Pregnancy test                                                              NF010000000000NN1992070120000531
E411   Pregnancy test                                                              NF010000000000NN2000060120801231
E420   Creatine kinase (CK)                                                        N 000000000000NN1992070120000531
E420   Creatine kinase (CK)                                                        N 000000000000NN2000060120801231
E420A  Creatine kinase (CK) isoenzyme fractionation                                N 000000000000NN1992070120000531
E420A  Creatine kinase (CK) isoenzyme fractionation                                N 000000000000NN2000060120801231
E421   Lipids, total                                                               N 000000000000NN1992070119940731
E422   Chromatography (blood), gas per specimen, per injection                     N 000000000000NN1992070120000531
E422   Chromatography (blood), gas per specimen, per injection                     N 000000000000NN2000060120801231
E425   D-Xylose tolerance                                                          N 000000000000NN1992070120000531
E425   D-Xylose tolerance                                                          N 000000000000NN2000060120801231
E426   Bilirubin                                                                   N 000000000000NN1992070120000531
E426   Bilirubin                                                                   N 000000000000NN2000060120801231
E427   Fetal hemoglobin cell count (Kleihauer)                                     N 000000000000NN1992070120000531
E427   Fetal hemoglobin cell count (Kleihauer)                                     N 000000000000NN2000060120801231
E428   Stypven time                                                                N 000000000000NN1992070120000531
E428   Stypven time                                                                N 000000000000NN2000060120801231
E429   Heinz body (in vitro)                                                       N 000000000000NN1992070120000531
E429   Heinz body (in vitro)                                                       N 000000000000NN2000060120801231
E432   R.B.C. absorption and elution studies                                       N 000000000000NN1992070120000531
E432   R.B.C. absorption and elution studies                                       N 000000000000NN2000060120801231
E433   R.B.C. elution only                                                         N 000000000000NN1992070120000531
E433   R.B.C. elution only                                                         N 000000000000NN2000060120801231
E434   Leukoagglutinins (quantitative)                                             N 000000000000NN1992070120000531
E434   Leukoagglutinins (quantitative)                                             N 000000000000NN2000060120801231
E435   Platelet antibodies, modification of complement fixation                    N 000000000000NN1992070120000531
E435   Platelet antibodies, modification of complement fixation                    N 000000000000NN2000060120801231
E436   Red blood cell antibody titration, warm or cold, saline and/or              N 000000000000NN1992070120000531
E436   Red blood cell antibody titration, warm or cold, saline and/or              N 000000000000NN2000060120801231
E450   Electron microscopy of biopsy specimen with report                          N 000000000000NN1992070120000531
E450   Electron microscopy of biopsy specimen with report                          N 000000000000NN2000060120801231
E460   Hemoglobin hybridization in identification of abnormal hemoglobins          N 000000000000NN1992070120000531
E460   Hemoglobin hybridization in identification of abnormal hemoglobins          N 000000000000NN2000060120801231
E464   Fibrinogen split products                                                   N 000000000000NN1992070120000531
E464   Fibrinogen split products                                                   N 000000000000NN2000060120801231
E468   Donor antibody screen, per donor, per day, including antiglobulin           N 000000000000NN1992070120000531
E468   Donor antibody screen, per donor, per day, including antiglobulin           N 000000000000NN2000060120801231
E469   Preparation of packed red cells - per patient, per day (not                 N 000000000000NN1992070120000531
E469   Preparation of packed red cells - per patient, per day (not                 N 000000000000NN2000060120801231
E471   Preparation of platelet concentrate (minimum of eight donors) (not          N 000000000000NN1992070120000531
E471   Preparation of platelet concentrate (minimum of eight donors) (not          N 000000000000NN2000060120801231
E472   Preparation of cryoprecipitate - per unit (not including                    N 000000000000NN1992070120000531
E472   Preparation of cryoprecipitate - per unit (not including                    N 000000000000NN2000060120801231
E473   Aldolase                                                                    N 000000000000NN1992070120000531
E473   Aldolase                                                                    N 000000000000NN2000060120801231
E474   Hydroxybutyric dehydrogenase                                                N 000000000000NN1992070119940731
E475   Alpha 1 antitrypsin                                                         N 000000000000NN1992070120000531
E475   Alpha 1 antitrypsin                                                         N 000000000000NN2000060120801231
E479   Calculus analysis by infra-red spectroscopy or x-ray diffraction            N 000000000000NN1992070120000531
E479   Calculus analysis by infra-red spectroscopy or x-ray diffraction            N 000000000000NN2000060120801231
E480   Calculus - infra-red scan - interpretation of                               N 000000000000NN1992070120000531
E480   Calculus - infra-red scan - interpretation of                               N 000000000000NN2000060120801231
E481   Delta-aminolevulinic acid                                                   N 000000000000NN1992070120000531
E481   Delta-aminolevulinic acid                                                   N 000000000000NN2000060120801231
E483   Oxalate                                                                     N 000000000000NN1992070120000531
E483   Oxalate                                                                     N 000000000000NN2000060120801231
E486   Urinary free cortisol                                                       N 000000000000NN1992070120000531
E486   Urinary free cortisol                                                       N 000000000000NN2000060120801231
E487   Cortisol                                                                    N 000000000000NN1992070120000531
E487   Cortisol                                                                    N 000000000000NN2000060120801231
E488   Oxytocinase                                                                 N 000000000000NN1992070119940731
E489   Metanaphrine                                                                N 000000000000NN1992070120000531
E489   Metanaphrine                                                                N 000000000000NN2000060120801231
E492   Complement 3, serum                                                         N 000000000000NN1992070120000531
E492   Complement 3, serum                                                         N 000000000000NN2000060120801231
E493   Antigen identification in tissue biopsy by immunologic techniques,          N 000000000000NN1992070120000531
E493   Antigen identification in tissue biopsy by immunologic techniques,          N 000000000000NN2000060120801231
E494   Complement 4, serum                                                         N 000000000000NN1992070120000531
E494   Complement 4, serum                                                         N 000000000000NN2000060120801231
E495   Complement, total (hemolytic assay)                                         N 000000000000NN1992070120000531
E495   Complement, total (hemolytic assay)                                         N 000000000000NN2000060120801231
E496   Viral serology - complement fixation test, single antigen                   N 000000000000NN1992070120000531
E496   Viral serology - complement fixation test, single antigen                   N 000000000000NN2000060120801231
E497   Viral serology - complement fixation test, 5 to 7 antigens                  N 000000000000NN1992070120000531
E497   Viral serology - complement fixation test, 5 to 7 antigens                  N 000000000000NN2000060120801231
E498   Repeat viral complement fixation test, (convalescent) - 5 to 7              N 000000000000NN1992070120000531
E498   Repeat viral complement fixation test, (convalescent) - 5 to 7              N 000000000000NN2000060120801231
E499   Viral serology - hemagglutination inhibition test                           N 000000000000NN1992070120000531
E499   Viral serology - hemagglutination inhibition test                           N 000000000000NN2000060120801231
E500   Unlisted procedures                                                         N 000000000000NN1992070120000531
E500   Unlisted procedures                                                         N 000000000000NN2000060120801231
E500A  Unlisted procedures (out of province referral to Canadian                   N 000000000000NN1992070120000531
E500A  Unlisted procedures (out of province referral to Canadian                   N 000000000000NN2000060120801231
E500B  Unlisted procedures (out of Canada referrals)                               N 000000000000NN1992070120000531
E500B  Unlisted procedures (out of Canada referrals)                               N 000000000000NN2000060120801231
E501   Narcotic drug screen urine - suspect drug specified                         N 000000000000NN1992070120000531
E501   Narcotic drug screen urine - suspect drug specified                         N 000000000000NN2000060120801231
E503   Hemoglobin A2 by chromatography                                             N 000000000000NN1992070120000531
E503   Hemoglobin A2 by chromatography                                             N 000000000000NN2000060120801231
E504   Lithium                                                                     N 000000000000NN1992070120000531
E504   Lithium                                                                     N 000000000000NN2000060120801231
E505   Chromatography, gas, per specimen, per injection                            N 000000000000NN1992070120000531
E505   Chromatography, gas, per specimen, per injection                            N 000000000000NN2000060120801231
E508   Toxoplasmosis, IgG or IgM                                                   N 000000000000NN1992070120000531
E508   Toxoplasmosis, IgG or IgM                                                   N 000000000000NN2000060120801231
E511   Crystal identification by polarizing microscopy                             N 000000000000NN1992070120000531
E511   Crystal identification by polarizing microscopy                             N 000000000000NN2000060120801231
E512   Heavy metals, each                                                          N 000000000000NN1992070120000531
E512   Heavy metals, each                                                          N 000000000000NN2000060120801231
E513   Radioimmunoassay                                                            N 000000000000NN1992070120000531
E513   Radioimmunoassay                                                            N 000000000000NN2000060120801231
E514   Aspartate aminotransferase (AST)                                            N 000000000000NN1992070119940731
E515   Alanine aminotransferase (ALT)                                              N 000000000000NN1992070120000531
E515   Alanine aminotransferase (ALT)                                              N 000000000000NN2000060120801231
E516   Ethosuximide (quantitative)                                                 N 000000000000NN1992070120000531
E516   Ethosuximide (quantitative)                                                 N 000000000000NN2000060120801231
E516A  Diphenylhydantoin (phenytoin) (quantitative)                                N 000000000000NN1992070120000531
E516A  Diphenylhydantoin (phenytoin) (quantitative)                                N 000000000000NN2000060120801231
E516B  Phenobarbitone (quantitative)                                               N 000000000000NN1992070120000531
E516B  Phenobarbitone (quantitative)                                               N 000000000000NN2000060120801231
E516D  Primidone (quantitative)                                                    N 000000000000NN1992070120000531
E516D  Primidone (quantitative)                                                    N 000000000000NN2000060120801231
E516E  Procainamide (quantitative)                                                 N 000000000000NN1992070120000531
E516E  Procainamide (quantitative)                                                 N 000000000000NN2000060120801231
E516F  Quinidine (quantitative)                                                    N 000000000000NN1992070120000531
E516F  Quinidine (quantitative)                                                    N 000000000000NN2000060120801231
E516G  Drug assay - (not to be used if specific fee code for drug assayed          N 000000000000NN1992070120000531
E516G  Drug assay - (not to be used if specific fee code for drug assayed          N 000000000000NN2000060120801231
E516J  Theophylline (quantitative)                                                 N 000000000000NN1992070120000531
E516J  Theophylline (quantitative)                                                 N 000000000000NN2000060120801231
E516K  Valproic acid (quantitative)                                                N 000000000000NN1992070120000531
E516K  Valproic acid (quantitative)                                                N 000000000000NN2000060120801231
E516M  Carbamazepine (quantitative)                                                N 000000000000NN1992070120000531
E516M  Carbamazepine (quantitative)                                                N 000000000000NN2000060120801231
E516N  N-acetylprocainamide (quantitative)                                         N 000000000000NN1992070120000531
E516N  N-acetylprocainamide (quantitative)                                         N 000000000000NN2000060120801231
E517   Hemoglobin, unstable by heat stability                                      N 000000000000NN1992070120000531
E517   Hemoglobin, unstable by heat stability                                      N 000000000000NN2000060120801231
E518   Immunoelectrophoresis or immunofixation, including dialysis                 N 000000000000NN1992070120000531
E518   Immunoelectrophoresis or immunofixation, including dialysis                 N 000000000000NN2000060120801231
E519   Cholesterol, high density lipoprotein (HDL) fraction                        N 000000000000NN1992070120000531
E519   Cholesterol, high density lipoprotein (HDL) fraction                        N 000000000000NN2000060120801231
E520   Platelet aggregation per aggregating agent                                  N 000000000000NN1992070120000531
E520   Platelet aggregation per aggregating agent                                  N 000000000000NN2000060120801231
E521   Chromatography, liquid - per specimen - per injection                       N 000000000000NN1992070120000531
E521   Chromatography, liquid - per specimen - per injection                       N 000000000000NN2000060120801231
E522   Chromatography by column                                                    N 000000000000NN1992070120000531
E522   Chromatography by column                                                    N 000000000000NN2000060120801231
E523   Chromatography, thin layer - qualitative, per plate                         N 000000000000NN1992070120000531
E523   Chromatography, thin layer - qualitative, per plate                         N 000000000000NN2000060120801231
E524   Chromatography (blood), liquid per specimen, per injection                  N 000000000000NN1992070120000531
E524   Chromatography (blood), liquid per specimen, per injection                  N 000000000000NN2000060120801231
E525   Chromatography (blood) by column                                            N 000000000000NN1992070120000531
E525   Chromatography (blood) by column                                            N 000000000000NN2000060120801231
E526   Chromatography (blood), thin layer qualitative, per plate                   N 000000000000NN1992070120000531
E526   Chromatography (blood), thin layer qualitative, per plate                   N 000000000000NN2000060120801231
E527   Protoporphyrin, free (red cell)                                             N 000000000000NN1992070120000531
E527   Protoporphyrin, free (red cell)                                             N 000000000000NN2000060120801231
E528   Pyruvic acid or pyruvate                                                    N 000000000000NN1992070120000531
E528   Pyruvic acid or pyruvate                                                    N 000000000000NN2000060120801231
E529   Transferrin, quantitative                                                   N 000000000000NN1992070120000531
E529   Transferrin, quantitative                                                   N 000000000000NN2000060120801231
E530   Cystine, quantitative                                                       N 000000000000NN1992070120000531
E530   Cystine, quantitative                                                       N 000000000000NN2000060120801231
E531   Homogentisic acid, qualitative                                              N 000000000000NN1992070120000531
E531   Homogentisic acid, qualitative                                              N 000000000000NN2000060120801231
E532   Hydroxyproline, quantitative                                                N 000000000000NN1992070120000531
E532   Hydroxyproline, quantitative                                                N 000000000000NN2000060120801231
E533   Mucopolysaccharides, qualitative                                            N 000000000000NN1992070120000531
E533   Mucopolysaccharides, qualitative                                            N 000000000000NN2000060120801231
E534   PH (feces)                                                                  N 000000000000NN1992070120000531
E534   PH (feces)                                                                  N 000000000000NN2000060120801231
E535   Mucin clot test (synovial fluid)                                            N 000000000000NN1992070119940731
E536   Gastric contents - gas or liquid chromatography, per specimen, per          N 000000000000NN1992070120000531
E536   Gastric contents - gas or liquid chromatography, per specimen, per          N 000000000000NN2000060120801231
E537   Gastric contents, thin layer chromatography, qualitative, per               N 000000000000NN1992070120000531
E537   Gastric contents, thin layer chromatography, qualitative, per               N 000000000000NN2000060120801231
E538   Needle aspiration cytopathology (processing, examination and                N 000000000000NN1992070120000531
E538   Needle aspiration cytopathology (processing, examination and                N 000000000000NN2000060120801231
E550   Digoxin                                                                     N 000000000000NN1992070120000531
E550   Digoxin                                                                     N 000000000000NN2000060120801231
E550A  Estradiol                                                                   N 000000000000NN1992070120000531
E550A  Estradiol                                                                   N 000000000000NN2000060120801231
E550B  Estrogen, total                                                             N 000000000000NN1992070120000531
E550B  Estrogen, total                                                             N 000000000000NN2000060120801231
E550D  Ferritin                                                                    N 000000000000NN1992070120000531
E550D  Ferritin                                                                    N 000000000000NN2000060120801231
